:1000000012C021C020C01FC01EC01DC01CC01BC00C
:100010001AC019C018C017C016C015C014C013C02C
:1000200012C011C010C011241FBECFE5D4E0DEBF46
:10003000CDBF10E0A0E6B0E001C01D92AF36B10721
:10004000E1F759D0CBC0DCCF779B06C077999FB939
:10005000779BFECF77998FB9089577998FB9779964
:100060006FB9089577991FB877991FB88FB1089520
:10007000779B02C081E18FB9779B02C08FED8FB96A
:1000800008950BB606FE36C077991FB877991FB84A
:100090007A9B2AC0E0916000F091610077991FB8C7
:1000A00077991FB88FB1818377991FB877991FB857
:1000B0008FB1828377991FB877991FB88FB18483E6
:1000C00077991FB877991FB88FB1838377991FB835
:1000D00077991FB88FB18583968177991FB87799E3
:1000E0001FB88FB1890F868377991FB877991FB88A
:1000F0007D99BEDF089587B3866087BB6C9A6E9A40
:10010000689AC19A779B02C088E18FB977991FB826
:10011000E0916000F09161009181779B02C083E1E2
:100120008FB977999FB99081779B02C082E18FB98F
:1001300077999FB99281779B02C084E18FB97799B3
:100140009FB99481779B02C086E18FB977999FB957
:100150009381779B02C085E18FB977999FB991858B
:10016000779B02C08BE18FB977999FB99285779B76
:1001700002C08CE18FB977999FB99085779B02C0B7
:100180008AE18FB977999FB977991FB877991FB886
:100190008FB1818377991FB877991FB88FB1828308
:1001A00077991FB877991FB88FB1848377991FB853
:1001B00077991FB88FB1838377991FB877991FB844
:1001C0008FB18583968177991FB877991FB88FB1C2
:1001D000890F8683C09A80E090E00895F894FFCF5D
:00000001FF
